{
    "_format": "hh-sol-artifact-1",
    "contractName": "transaction",
    "sourceName": "contracts/transaction.sol",
    "abi": [
        {
            "anonymous": false,
            "inputs": [
                {
                    "indexed": false,
                    "internalType": "address",
                    "name": "from",
                    "type": "address"
                },
                {
                    "indexed": false,
                    "internalType": "address",
                    "name": "to",
                    "type": "address"
                },
                {
                    "indexed": false,
                    "internalType": "uint256",
                    "name": "amount",
                    "type": "uint256"
                },
                {
                    "indexed": false,
                    "internalType": "string",
                    "name": "msg",
                    "type": "string"
                },
                {
                    "indexed": false,
                    "internalType": "uint256",
                    "name": "timestamp",
                    "type": "uint256"
                },
                {
                    "indexed": false,
                    "internalType": "string",
                    "name": "keyword",
                    "type": "string"
                }
            ],
            "name": "Transfer",
            "type": "event"
        },
        {
            "inputs": [
                {
                    "internalType": "address",
                    "name": "to",
                    "type": "address"
                },
                {
                    "internalType": "uint256",
                    "name": "amount",
                    "type": "uint256"
                },
                {
                    "internalType": "string",
                    "name": "message",
                    "type": "string"
                },
                {
                    "internalType": "string",
                    "name": "keyword",
                    "type": "string"
                }
            ],
            "name": "addToBlockChain",
            "outputs": [],
            "stateMutability": "nonpayable",
            "type": "function"
        },
        {
            "inputs": [],
            "name": "getAllTx",
            "outputs": [
                {
                    "components": [
                        {
                            "internalType": "address",
                            "name": "from",
                            "type": "address"
                        },
                        {
                            "internalType": "address",
                            "name": "to",
                            "type": "address"
                        },
                        {
                            "internalType": "uint256",
                            "name": "amount",
                            "type": "uint256"
                        },
                        {
                            "internalType": "string",
                            "name": "message",
                            "type": "string"
                        },
                        {
                            "internalType": "uint256",
                            "name": "timestamp",
                            "type": "uint256"
                        },
                        {
                            "internalType": "string",
                            "name": "keyword",
                            "type": "string"
                        }
                    ],
                    "internalType": "struct transaction.transaction_structure[]",
                    "name": "",
                    "type": "tuple[]"
                }
            ],
            "stateMutability": "view",
            "type": "function"
        }
    ],
    "bytecode": "0x608060405234801561001057600080fd5b50610d58806100206000396000f3fe608060405234801561001057600080fd5b50600436106100365760003560e01c8063271b93ce1461003b578063b2da096014610059575b600080fd5b610043610075565b60405161005091906106a8565b60405180910390f35b610073600480360381019061006e919061086b565b6102b8565b005b60606001805480602002602001604051908101604052809291908181526020016000905b828210156102af57838290600052602060002090600602016040518060c00160405290816000820160009054906101000a900473ffffffffffffffffffffffffffffffffffffffff1673ffffffffffffffffffffffffffffffffffffffff1673ffffffffffffffffffffffffffffffffffffffff1681526020016001820160009054906101000a900473ffffffffffffffffffffffffffffffffffffffff1673ffffffffffffffffffffffffffffffffffffffff1673ffffffffffffffffffffffffffffffffffffffff1681526020016002820154815260200160038201805461018290610939565b80601f01602080910402602001604051908101604052809291908181526020018280546101ae90610939565b80156101fb5780601f106101d0576101008083540402835291602001916101fb565b820191906000526020600020905b8154815290600101906020018083116101de57829003601f168201915b505050505081526020016004820154815260200160058201805461021e90610939565b80601f016020809104026020016040519081016040528092919081815260200182805461024a90610939565b80156102975780601f1061026c57610100808354040283529160200191610297565b820191906000526020600020905b81548152906001019060200180831161027a57829003601f168201915b50505050508152505081526020019060010190610099565b50505050905090565b60016000808282546102ca9190610999565b9250508190555060016040518060c001604052803373ffffffffffffffffffffffffffffffffffffffff1681526020018673ffffffffffffffffffffffffffffffffffffffff16815260200185815260200184815260200142815260200183815250908060018154018082558091505060019003906000526020600020906006020160009091909190915060008201518160000160006101000a81548173ffffffffffffffffffffffffffffffffffffffff021916908373ffffffffffffffffffffffffffffffffffffffff16021790555060208201518160010160006101000a81548173ffffffffffffffffffffffffffffffffffffffff021916908373ffffffffffffffffffffffffffffffffffffffff1602179055506040820151816002015560608201518160030190816104029190610b79565b506080820151816004015560a08201518160050190816104229190610b79565b5050507f416cfa4330a4565f45c2fd2dd4826a83a37443aba2ce6f79477c7355afac35fa33858585428660405161045e96959493929190610cb3565b60405180910390a150505050565b600081519050919050565b600082825260208201905092915050565b6000819050602082019050919050565b600073ffffffffffffffffffffffffffffffffffffffff82169050919050565b60006104c382610498565b9050919050565b6104d3816104b8565b82525050565b6000819050919050565b6104ec816104d9565b82525050565b600081519050919050565b600082825260208201905092915050565b60005b8381101561052c578082015181840152602081019050610511565b60008484015250505050565b6000601f19601f8301169050919050565b6000610554826104f2565b61055e81856104fd565b935061056e81856020860161050e565b61057781610538565b840191505092915050565b600060c08301600083015161059a60008601826104ca565b5060208301516105ad60208601826104ca565b5060408301516105c060408601826104e3565b50606083015184820360608601526105d88282610549565b91505060808301516105ed60808601826104e3565b5060a083015184820360a08601526106058282610549565b9150508091505092915050565b600061061e8383610582565b905092915050565b6000602082019050919050565b600061063e8261046c565b6106488185610477565b93508360208202850161065a85610488565b8060005b8581101561069657848403895281516106778582610612565b945061068283610626565b925060208a0199505060018101905061065e565b50829750879550505050505092915050565b600060208201905081810360008301526106c28184610633565b905092915050565b6000604051905090565b600080fd5b600080fd5b6106e7816104b8565b81146106f257600080fd5b50565b600081359050610704816106de565b92915050565b610713816104d9565b811461071e57600080fd5b50565b6000813590506107308161070a565b92915050565b600080fd5b600080fd5b7f4e487b7100000000000000000000000000000000000000000000000000000000600052604160045260246000fd5b61077882610538565b810181811067ffffffffffffffff8211171561079757610796610740565b5b80604052505050565b60006107aa6106ca565b90506107b6828261076f565b919050565b600067ffffffffffffffff8211156107d6576107d5610740565b5b6107df82610538565b9050602081019050919050565b82818337600083830152505050565b600061080e610809846107bb565b6107a0565b90508281526020810184848401111561082a5761082961073b565b5b6108358482856107ec565b509392505050565b600082601f83011261085257610851610736565b5b81356108628482602086016107fb565b91505092915050565b60008060008060808587031215610885576108846106d4565b5b6000610893878288016106f5565b94505060206108a487828801610721565b935050604085013567ffffffffffffffff8111156108c5576108c46106d9565b5b6108d18782880161083d565b925050606085013567ffffffffffffffff8111156108f2576108f16106d9565b5b6108fe8782880161083d565b91505092959194509250565b7f4e487b7100000000000000000000000000000000000000000000000000000000600052602260045260246000fd5b6000600282049050600182168061095157607f821691505b6020821081036109645761096361090a565b5b50919050565b7f4e487b7100000000000000000000000000000000000000000000000000000000600052601160045260246000fd5b60006109a4826104d9565b91506109af836104d9565b92508282019050808211156109c7576109c661096a565b5b92915050565b60008190508160005260206000209050919050565b60006020601f8301049050919050565b600082821b905092915050565b600060088302610a2f7fffffffffffffffffffffffffffffffffffffffffffffffffffffffffffffffff826109f2565b610a3986836109f2565b95508019841693508086168417925050509392505050565b6000819050919050565b6000610a76610a71610a6c846104d9565b610a51565b6104d9565b9050919050565b6000819050919050565b610a9083610a5b565b610aa4610a9c82610a7d565b8484546109ff565b825550505050565b600090565b610ab9610aac565b610ac4818484610a87565b505050565b5b81811015610ae857610add600082610ab1565b600181019050610aca565b5050565b601f821115610b2d57610afe816109cd565b610b07846109e2565b81016020851015610b16578190505b610b2a610b22856109e2565b830182610ac9565b50505b505050565b600082821c905092915050565b6000610b5060001984600802610b32565b1980831691505092915050565b6000610b698383610b3f565b9150826002028217905092915050565b610b82826104f2565b67ffffffffffffffff811115610b9b57610b9a610740565b5b610ba58254610939565b610bb0828285610aec565b600060209050601f831160018114610be35760008415610bd1578287015190505b610bdb8582610b5d565b865550610c43565b601f198416610bf1866109cd565b60005b82811015610c1957848901518255600182019150602085019450602081019050610bf4565b86831015610c365784890151610c32601f891682610b3f565b8355505b6001600288020188555050505b505050505050565b610c54816104b8565b82525050565b610c63816104d9565b82525050565b600082825260208201905092915050565b6000610c85826104f2565b610c8f8185610c69565b9350610c9f81856020860161050e565b610ca881610538565b840191505092915050565b600060c082019050610cc86000830189610c4b565b610cd56020830188610c4b565b610ce26040830187610c5a565b8181036060830152610cf48186610c7a565b9050610d036080830185610c5a565b81810360a0830152610d158184610c7a565b905097965050505050505056fea2646970667358221220b4e2167e65d4df4007f17fcab9ca3e5d1a38c3a6cd43c5ec4c094fa7620c7f4c64736f6c63430008130033",
    "linkReferences": {},
    "deployedLinkReferences": {}
}